:020000040800F2
:1000000000000820C57F0008C5700008CD700008FA
:10001000ED700008F5700008FD7000080000000099
:10002000000000000000000000000000315F010837
:10003000057100080000000041610108A961010884
:10004000158000081580000815800008158000083C
:10005000158000081580000815800008158000082C
:10006000158000081580000815800008158000081C
:10007000158000081580000815800008158000080C
:1000800015800008158000081580000815800008FC
:1000900015800008158000081580000815800008EC
:1000A00015800008157100081580000815800008EB
:1000B00029710008158000081580000815800008C7
:1000C00015800008158000081580000815800008BC
:1000D00015800008158000081580000815800008AC
:1000E000158000081580000815800008158000089C
:1000F000158000081580000815800008158000088C
:10010000158000081580000815800008158000087B
:1001100015800008158000083D7100085171000825
:10012000158000081580000815800008158000085B
:10013000158000086571000815800008158000080A
:10014000158000081580000815800008158000083B
:100150001580000815800008158000081139000876
:10016000158000081580000815800008158000081B
:1001700015800008158000081580000800000000A8
:1001800015800008158000081580000815800008FB
:1001900015800008158000081580000815800008EB
:1001A00015800008158000081580000815800008DB
:1001B00015800008158000081580000815800008CB
:1001C0001580000815800008000000001580000858
:1001D00015800008158000081580000815800008AB
:1001E000158000081580000815800008158000089B
:0801F0001580000815800008CD
:1002000010B5054C237833B9044B13B10448AFF350
:1002100000800123237010BD300300200000000087
:10022000D07D020808B5034B1BB103490348AFF367
:10023000008008BD0000000034030020D07D0208CB
:1002400010F8012B11F8013B012A28BF9A42F7D080
:10025000D01A7047034613F8012B002AFBD1181A55
:10026000013870470000000000000000000000009E
:1002700001F0FF01102A2BDB10F0070F08D010F857
:10028000013B013A8B422DD010F0070F42B3F6D15B
:10029000F0B441EA012141EA014122F007047FF074
:1002A00000070023F0E80256083C85EA010586EACB
:1002B000010685FA47F5A3FA87F586FA47F6A5FA07
:1002C00087F68EB9EED1F0BC01F0FF0102F0070213
:1002D00032B110F8013B013A83EA010313B1F8D1BE
:1002E0000020704701387047002D06BF354603389F
:1002F000073815F0010F07D1013015F4807F02BFD8
:10030000013015F4C03F0130F0BC0138704700BF28
:1003100053B94AB9002908BF00281CBF4FF0FF316C
:100320004FF0FF3000F088B9ADF1080C6DE904CE54
:1003300000F006F8DDF804E0DDE9022304B07047C0
:100340002DE9F047089D0F4604468C46002B48D106
:100350008A42164661D9B2FA82F34BB1C3F1200248
:1003600001FA03FC20FA02F29E4042EA0C0C9C4087
:100370004FEA164EB7B2BCFBFEF1220C0EFB11CCBD
:1003800042EA0C4201FB07F0904209D9B21801F190
:10039000FF3C80F0EE80904240F2EB800239324424
:1003A000121AA4B2B2FBFEF00EFB102244EA024481
:1003B00000FB07F7A74209D9341900F1FF3280F09A
:1003C000DA80A74240F2D7803444023840EA014044
:1003D000E41B00211DB1DC400023C5E90043BDE85A
:1003E000F0878B4206D90DB1C5E90001002108460E
:1003F000BDE8F087B3FA83F1002948D1BB4202D3AC
:10040000824200F20781841A67EB030201209446BE
:10041000002DE4D0C5E9004CE1E7002A00F092800D
:10042000B2FA82F3002B40F0A8808A1A4FEA164EE7
:100430001FFA86FC0121200CB2FBFEF70EFB1722EF
:1004400040EA02420CFB07F0904207D9B21807F1CC
:10045000FF3802D2904200F2E2804746121AA4B25C
:10046000B2FBFEF00EFB102244EA02440CFB00FC3F
:10047000A44507D9341900F1FF3202D2A44500F295
:10048000CB801046A4EB0C0440EA0740A2E7C1F180
:1004900020068B4022FA06FC4CEA030C07FA01F412
:1004A00020FA06F3F7404FEA1C49234300FA01F80B
:1004B0001FFA8CFEB7FBF9F01C0C09FB107744EA1D
:1004C000074400FB0EF7A74202FA01F20AD91CEB1F
:1004D000040400F1FF3A80F09B80A74240F298802C
:1004E00002386444E41B9FB2B4FBF9F309FB1344E4
:1004F00047EA044403FB0EFEA64509D91CEB04049D
:1005000003F1FF3780F08280A6457FD9023B644427
:1005100043EA0040A4EB0E04A0FB02E7BC42734692
:10052000B94663D360D05DB1B8EB030264EB090454
:1005300004FA06F622FA01F31E43CC40C5E9006432
:1005400000214CE76208480842EAC1710B0C43EAFB
:1005500000438AB242EA0342B3FBF6F1E407B44631
:100560003746B6461F23B0FBF6F0D21B41EA0041E6
:1005700061E7614614E7104628E7C3F1200120FA3D
:1005800001F29E4027FA01F19F403A434FEA164E8E
:100590001FFA86FCB1FBFEF70EFB1710110C41EAA7
:1005A000004107FB0CF8884504FA03F43AD97118A6
:1005B00007F1FF3001D288451FD8A1EB0801B1FB3C
:1005C000FEF808FB0CF70EFB181192B242EA01424A
:1005D000BA422FD2B21808F1FF31C6D2BA42C4D201
:1005E000A8F102013244C0E7F0459CD2BEEB020301
:1005F00067EB0C070138B94695E7A6EB08084144BC
:10060000B81EB1FBFEF808FB0CF7DCE73B467FE7C2
:10061000504667E70846FBE63444023832E7023FBB
:1006200032441BE7A1EB08013846B1FBFEF808FB9A
:100630000CF7C8E7414698E7704700BF80B584B023
:1006400000AFF860B9607A607B80FB68BA681A60B6
:10065000FB687A685A60FB687A881A81FB68BA6915
:10066000DA60FB68BA8B1A82FB683A6A5A61FB68E7
:10067000BA8C1A83FB6897F828209A76F86800F0FD
:1006800091FC00BF1037BD4680BD80B483B000AF81
:1006900078607B681B681B6808221A627B681B688D
:1006A0001B689A697B681B681B6842F008029A61A4
:1006B0007B681B681B689A697B681B681B6842F033
:1006C00010029A6100BF0C37BD465DF8047B70478D
:1006D00080B586B000AFF860B9607A60F868FFF75F
:1006E000D4FF154806F086FF00237B610AE07B6992
:1006F000BA6813441B781946104806F07BFF7B69E3
:1007000001337B617A697B689A42F0DB0C4806F022
:1007100071FFFB6818687B689AB24FF47A73B96806
:100720000CF091F8FB68DB695A1CFB68DA6100BFCA
:100730001837BD4680BD00BFE87D0208F87D02087D
:10074000007E020880B588B000AFF860B9607A60BA
:100750007B681A460021B86826F0DDF80023FB61AB
:1007600025E0FB681868FB69BA68D1184FF47A7302
:1007700001220CF0F1F80346FB75FB7D002B13D032
:100780007A68F9691B4806F035FFFB681B681B682F
:10079000DB691946184806F02DFFFB685B6A5A1C96
:1007A000FB685A62002321E0FB690133FB61FA69AF
:1007B0007B689A42D5DB7A687968104806F01AFFA0
:1007C0000023BB610AE0BB69BA6813441B78194671
:1007D0000B4806F00FFFBB690133BB61BA697B6848
:1007E0009A42F0DB074806F005FF01231846203740
:1007F000BD4680BD047E02082C7E0208507E0208A1
:10080000707E0208007E020880B586B000AF786076
:1008100039604FF6FF73FB8200233B6126E03B69A2
:100820007A6813441B781A46FB8A5340FB820023E4
:10083000FB6015E0FB8A03F00103002B0AD0FB8A62
:100840005B08FB82FB8A83F4BF4383F07E03DB43B8
:10085000FB8202E0FB8A5B08FB82FB680133FB60E2
:10086000FB68072BE6DD3B6901333B613B68023BDC
:100870003A699A42D3DB3B68013B7A6813441B78A0
:100880001BB21B021AB23B68023B79680B441B780F
:100890001BB213431BB27B81FA8A7B899A4204D034
:1008A000044806F0A7FE002300E00123184618378D
:1008B000BD4680BD787E020880B582B000AF78600A
:1008C00039603B6801331B785BB2002B0DDA7B6823
:1008D000DB6A5A1C7B68DA623B6802331B78194674
:1008E000044806F087FE002300E00123184608377D
:1008F000BD4680BD987E020880B485B000AF7860A8
:100900000B467B804FF6FF73FB810023BB8126E003
:10091000BB897A6813441B781A46FB895340FB81D4
:100920000023FB7215E0FB8903F00103002B0AD0C2
:10093000FB895B08FB81FB8983F4BF4383F07E0363
:10094000DB43FB8102E0FB895B08FB81FB7A01331F
:10095000FB72FB7A072BE6D9BB890133BB81BA89CD
:100960007B889A42D4D37B887A681344FA89D2B2BE
:100970001A70FB891B0A99B27B8801337A68134489
:10098000CAB21A7000BF1437BD465DF8047B7047C9
:1009900080B598B000AFF8607B600B467B81134652
:1009A0003B81FB689B7E87F85030032387F85130EA
:1009B0007B891B0A9BB2DBB287F852307B89DBB2A2
:1009C00087F853303B891B0A9BB2DBB287F854305F
:1009D0003B89DBB287F8553007F1500306211846F2
:1009E000FFF78AFF0023FB6571E007F1500308223F
:1009F0001946F868FFF76CFE3B895B005A1D07F14A
:100A000010031946F868FFF79DFE034683F00103C3
:100A1000DBB2002B05D0FB681B6B5A1CFB681A630A
:100A200052E03B895B005A1D07F11003114618463E
:100A3000FFF7EAFE034683F00103DBB2002B05D08B
:100A4000FB689B6A5A1CFB689A623DE007F1100341
:100A50001946F868FFF730FF034683F00103DBB265
:100A6000002B30D10023A7F85A3021E0B7F85A30D4
:100A70005B00033360333B4413F8503C1BB21B0252
:100A80001AB2B7F85A3002335B0060333B4413F8B4
:100A9000503C1BB2134319B2B7F85A305B007A6866
:100AA00013448AB21A80B7F85A300133A7F85A3083
:100AB000B7F85A203B899A42D8D3FB68012283F8C1
:100AC0003420012310E000BFFB6D0133FB65FB6D9B
:100AD000022B8ADDFB68002283F834207B891946CB
:100AE000034806F087FD002318466037BD4680BDE9
:100AF000BC7E020880B584B000AFF8600B467A6017
:100B00007B8179897B680122F868FFF741FF034602
:100B100018461037BD4680BD80B588B000AF7860FC
:100B20000B467B8013463B807B689B7E3B74102387
:100B30007B747B881B0A9BB2DBB2BB747B88DBB205
:100B4000FB7400233B7503237B750623BB753B8831
:100B50001B0A9BB2DBB2FB753B88DBB23B76002302
:100B60007B760023BB760023FB7600233B7707F1DF
:100B700010030D211846FFF7BFFE07F110030F22E7
:100B800019467868FFF7A4FD07F108030822194603
:100B90007868FFF7D7FD034683F00103DBB2002B33
:100BA00004D0144806F026FD00231FE007F10803D7
:100BB00008211846FFF728FE034683F00103DBB245
:100BC000002B04D00C4806F015FD00230EE007F1C1
:100BD000080319467868FFF76FFE034683F00103A8
:100BE000DBB2002B01D0002300E0012318462037A0
:100BF000BD4680BDF07E02081C7F020880B584B02F
:100C000000AF78600B467B8013463B800023FB607F
:100C100030E03A887B8819467868FFF77DFF034605
:100C200083F00103DBB2002B20D1642012F0EEF937
:100C300007F10A027B8819467868FFF75BFF0346D5
:100C400083F00103DBB2002B03D0104806F0D2FC86
:100C50000DE07B893A889A4201D1012311E03B885B
:100C60007A8919460A4806F0C5FC00E000BFFB6817
:100C70000133FB60FB68022BCBDD064806F0BAFCB3
:100C8000002318461037BD4680BD00BF487F0208CC
:100C90006C7F0208987F020880B582B000AF786050
:100CA0000B467B807B881A4604217868FFF7A6FFF5
:100CB000034618460837BD4680BD80B582B000AFF8
:100CC00078600B467B807B881A4606217868FFF7A0
:100CD00095FF034618460837BD4680BD80B582B0F3
:100CE00000AF78600B467B807B881A4608217868C5
:100CF000FFF784FF034618460837BD4680BD000055
:100D000080B582B000AF786039603A6800217868B9
:100D1000FFF7F0FE034683F00103DBB2002B04D0A3
:100D2000044806F067FC002300E00123184608375A
:100D3000BD4680BDC87F020880B582B000AF786034
:100D40007B6858687B681B890122194609F066F99F
:100D50004FF4FA7012F05AF97B6858687B681B8967
:100D60000022194609F05AF900BF0837BD4680BD78
:100D700080B582B000AF78607B68D8687B681B8ADA
:100D80000122194609F04AF94FF4FA7012F03EF9BF
:100D90007B68D8687B681B8A0022194609F03EF9F7
:100DA000034806F027FC00BF0837BD4680BD00BFE2
:100DB000F07F020880B584B000AF7860396007F03A
:100DC00051FAF86012E03B68002B0CD007F04AFAA9
:100DD0000246FB68D31A3A689A4204D80B4806F0D8
:100DE00009FC00230EE0642012F010F97B685A69B8
:100DF0007B681B8B1946104609F0F8F80346002B58
:100E0000E1D0012318461037BD4680BD0880020896
:100E100080B58AB000AFF8607A603B600B467B819A
:100E20007B89002B04D15A4806F0E4FB0023ABE099
:100E30007B897A6802FB03F3564A82FB0312521144
:100E4000DB17D31AFB847B893A6802FB03F3514A10
:100E500082FB03125211DB17D31ABB847B897B847C
:100E6000FB8C19464C4806F0C5FBBB8C19464B4819
:100E700006F0C0FB7B8C1946494806F0BBFB07F126
:100E8000100300221A605A609A60C3F80B20FB68B6
:100E90009B7E3B7410237B742023FB7403237B75A0
:100EA0000623BB750423FB74FB8C3B843B8C1B0A21
:100EB0009BB2DBB2FB753B8CDBB23B7607F11003D8
:100EC0000D211846FFF718FD07F110030F221946F0
:100ED000F868FFF7FDFB642012F098F80623FB7416
:100EE000BB8C3B843B8C1B0A9BB2DBB2FB753B8CFF
:100EF000DBB23B7607F110030D211846FFF7FCFC2F
:100F000007F110030F221946F868FFF7E1FB642090
:100F100012F07CF80823FB747B8C3B843B8C1B0A0F
:100F20009BB2DBB2FB753B8CDBB23B7607F1100367
:100F30000D211846FFF7E0FC07F110030F221946B8
:100F4000F868FFF7C5FB642012F060F8F868FFF757
:100F5000F3FE4FF4FA7012F059F80021F868FFF729
:100F600029FF034683F00103DBB2002B04D0F868AD
:100F7000FFF7FEFE002307E04FF4FA7012F046F888
:100F8000F868FFF7F5FE012318462837BD4680BDF7
:100F90002C8002081F85EB515880020868800208E7
:100FA0007880020880B483B000AF78607B6800224C
:100FB000DA617B6800221A627B6800225A627B68D1
:100FC00000229A627B680022DA627B6800221A6340
:100FD0007B68012283F8342000BF0C37BD465DF8E2
:100FE000047B704780B590B002AFF8607A603B60D8
:100FF0000B467B810023FB8200237B8400233B8400
:101000000023FB7701237B63002387F833307B8940
:10101000002B04D1764806F0EDFA0023E3E0F868EF
:10102000FFF78AFEF868FFF7A3FE7A8913461B01D3
:101030009B1A5B001A466F4BA3FB02235B09BB8321
:101040007A8913461B019B1A9B001A46694BA3FB26
:1010500002235B097B837B893B83BB8B1946F86842
:10106000FFF71AFE034683F00103DBB2002B01D029
:101070000023B8E0C82011F0C9FF7B8B1946F8683F
:10108000FFF71BFE034683F00103DBB2002B01D008
:101090000023A8E0C82011F0B9FF3B8B1946F8687F
:1010A000FFF71CFE034683F00103DBB2002B01D0E7
:1010B000002398E0C82011F0A9FFF868FFF73CFE74
:1010C0004FF4FA7011F0A2FF0023FB620023BB6211
:1010D00000237B6218E00023BB8207F1140319464A
:1010E000F868FFF70DFE0346002B07D0BB8A1A46AF
:1010F000FB6A1344FB62BB6A0133BB62C82011F078
:1011000085FF7B6A01337B627B6A042BE3DDBB6A6C
:10111000002B05DDBB6AFA6AB2FBF3F39BB200E079
:1011200000237B847B8C7A891946334806F062FA67
:1011300007F116031946F868FFF7E2FD034683F04E
:101140000103DBB2002B02D02C4806F053FAFB8AD5
:101150007A8C9A4204D2FA8A7B8CD31A9BB200E032
:1011600000233B84FB8A18463A8C79897B6B009379
:101170000B460146224806F03DFA3A8C7B899A429A
:101180000DD3204806F036FA0123FB7700BFF8683C
:10119000FFF7EEFD1C4806F02DFAFB7F23E097F8E1
:1011A000333083F00103DBB2002B10D0FB685A69A7
:1011B000FB681B8B1946104608F018FF0346002BEE
:1011C00005D0124806F016FA012387F83330C822FA
:1011D0000021786B05F006F87B6B132BA8DC7B6B8A
:1011E00001337B63A4E718463837BD4680BD00BF96
:1011F000F08002081F85EB51188102084081020827
:1012000070810208A481020820820208B8810208C5
:10121000F0B5B3B006AF7860AC4806F0EBF9AC4877
:1012200006F0E8F93221AB4806F034FAA94825F077
:10123000F7F80346013B142B00F2BD8301A252F8DC
:1012400023F000BF9912000823170008C3190008F3
:1012500073250008ED250008C52800082B29000883
:101260004B2900085729000869290008E3290008CC
:10127000E9290008EF290008592B00082B2D000848
:10128000852D00088B2D0008912D0008992D000850
:101290009F2D0008A52D00088F4B00221A608F4B50
:1012A00001221A708E4806F0A5F933E28D4806F047
:1012B000A1F93221874806F0EDF9864825F0B0F80B
:1012C0000346894A1360884B1B68013B0A2B00F2D6
:1012D0001D8201A252F823F005130008A91400088A
:1012E000391500088F150008FB1500081D160008A9
:1012F0003F160008791600088B160008D51600085E
:10130000E3160008794B1968794B1868794B1B88EC
:101310001C46794B1B68794A126801920093234658
:101320000246774806F066F9764806F063F93221FE
:10133000684806F0AFF9674B1B78002B05D065486D
:1013400025F06EF80346694A13606F4806F052F9BB
:101350003221604806F09EF95E4B1B78002B10D0BE
:101360005C4825F05DF838633B6B002B06D1604B81
:101370001B681946654806F03DF902E05C4A3B6B84
:101380001360634806F036F93221524806F082F9BC
:10139000504B1B78002B06D04E4825F041F80346F1
:1013A0009AB2544B1A805B4806F024F9322149481E
:1013B00006F070F9474B1B78002B05D0454825F007
:1013C0002FF803464C4A1360534806F013F93221B4
:1013D000404806F05FF93F4B1B78002B05D03D4895
:1013E00025F01EF80346454A13600223C7F8AC30C7
:1013F0004A4806F0FFF83221364806F04BF9354BE3
:101400001B78002B04D0334825F00AF8C7F8AC004D
:10141000364B1B68C7F8A830354B1B68C7F8A4309B
:10142000D7F8AC30012B09D1304B1B685B42C7F8B1
:10143000A8302F4B1B685B42C7F8A430274B1B78A2
:101440001C46D7F8AC30012B01D1354900E03549B5
:10145000284B1B881846284B1B68284A12680392A1
:1014600002930190D7F8A4300093D7F8A8300A4629
:1014700021462D4806F0BEF82C4B1868174B1C78F7
:101480001C4B1B881C4A12681C4909680291019276
:101490000093D7F8A430D7F8A820214603F0C8FD60
:1014A000234806F0A7F835E1204B18680B4B197854
:1014B000052340F2671203F0F9F84FF4FA7006F0D2
:1014C000DDFE1C4806F096F824E100BF34820208D5
:1014D0005C820208700300204C030020C84A0020F0
:1014E0004C85020868850208A40300200000002043
:1014F00004000020080000200C000020F003002061
:1015000000870208AC870208D0870208F487020827
:1015100024880208488802086C880208908802081B
:10152000C8880208D4880208E48802083000002035
:10153000AC890208C4890208AE4806F05BF8322183
:10154000AD4806F0A7F8AC4B1B78002B1BD0AA487F
:1015500024F066FF03469AB2A84B1A80A84B18687D
:10156000A84B1978A54B1B884FF4B27203F09EF874
:101570004FF4FA7006F082FEA04B1B881946A24871
:1015800006F038F8C6E0A14806F034F8C2E09C4BFB
:1015900018689C4B197805234FF4AA7203F086F85B
:1015A0004FF4FA7006F06AFE994806F023F8944B5F
:1015B0001868944B197843F6982340F21D5203F0B3
:1015C000CFF9034687F834308D4B18688D4B197866
:1015D000052340F2671203F069F84FF4FA7006F041
:1015E0004DFE97F83430002B03D08A4806F002F8FD
:1015F00090E0894805F0FEFF8CE0814B1868814B34
:10160000197806234FF4AA7203F050F84FF4FA70D9
:1016100006F034FE814805F0EDFF7BE0784B18685A
:10162000784B197801234FF4976203F03FF84FF499
:10163000FA7006F023FE7A4805F0DCFF6AE000232A
:10164000FB626F4B18686F4B197807F12C0340F25F
:101650001D5203F071F9034687F8353097F835309D
:10166000002B05D0FB6A19466E4805F0C3FF51E018
:101670006D4805F0BFFF4DE0614B1B68184603F055
:10168000E9F96A4805F0B6FF44E05D4B1B685C6809
:101690005B4B1B689D685A4B1B68DE68584B1B6888
:1016A0001B69574A12685269554909688969544843
:1016B0000068007F002801D05D4800E05D4803908D
:1016C00002910192009333462A4621465A4805F07A
:1016D00091FF1FE0594805F08DFF594B01221A6018
:1016E00018E040F67801574805F084FF444B1B682A
:1016F000184604F029F90346002B03D0524805F0A0
:1017000079FF07E0514805F075FF03E0504805F008
:1017100071FF00BF4A4B1B68002B3FF4C7AD01F0BF
:1017200045BB4C4B00221A60364B02221A704A48C5
:1017300005F060FF00BF474B1B68002B41F035836D
:10174000464805F057FF32212B4805F0A3FF2A48F1
:1017500024F066FE0346424A1360414B1B68092B86
:1017600000F2248101A252F823F000BF9F19000863
:1017700095170008DB17000875180008971800086F
:10178000D1180008FF1800082119000843190008A3
:1017900055190008334805F02DFF3221164805F091
:1017A00079FF154824F03CFEB8632F4805F022FF6E
:1017B0003221114805F06EFF0F4824F031FE034638
:1017C000FB860F4B18680F4B1978FB8EBA6B03F032
:1017D00059FD264805F00EFFECE0094B1B68094A4D
:1017E00012781146184603F021FD214805F002FF4A
:1017F000E0E000BFD8890208700300200800002044
:1018000030000020C84A0020F0890208048A02083B
:101810002C8A02084C8A0208608A0208748A02082C
:10182000988A0208B08A0208D48A0208F08A02085C
:10183000088B02080C8B0208108B0208D08B020860
:101840004C030020E48B0208148C02082C8C020844
:101850004C8C020850030020748C0208948C0208FF
:10186000A4030020148E0208288E0208388E020875
:10187000588E0208AC4B1868AC4B1978052340F21F
:10188000671202F013FF4FF4FA7006F0F7FCA84855
:1018900005F0B0FE8EE0A74805F0ACFE3221A64868
:1018A00005F0F8FEA44824F0BBFD0346FB879E4BE1
:1018B00018689E4B1978FB8F4FF4B27202F0F6FE57
:1018C0004FF4FA7006F0DAFC9C4805F093FE71E0E4
:1018D000954B1868954B197807F1280340F21D5273
:1018E00003F02AF80346002B05D0BB6A194694483A
:1018F00005F080FE5EE0934805F07CFE5AE08A4BDE
:1019000018688A4B197801234FF4976202F0CEFED3
:101910004FF4FA7006F0B2FC8B4805F06BFE49E01C
:10192000814B1868814B197806234FF4AA7202F094
:10193000BDFE4FF4FA7006F0A1FC844805F05AFE93
:1019400038E0794B1B68184603F084F8804805F0AE
:1019500051FE2FE0744B1B685C68734B1B689D68DD
:10196000714B1B68DE68704B1B681B696E4A1268FE
:1019700052696D49096889696B480068007F0028D1
:1019800001D0744800E074480390029101920093E2
:1019900033462A462146714805F02CFE0AE070487D
:1019A00005F028FE6F4B01221A6003E06E4805F037
:1019B00021FE00BF03E06C4805F01CFE00BF01F0F3
:1019C000F4B96A4B00221A6000F0CCBD684805F0FB
:1019D00011FE3221584805F05DFE574824F020FDE5
:1019E0000346644A1360634B1B68112B00F2B685F3
:1019F00001A252F823F000BF4F250008411A000849
:101A00009D1B00080F1C0008F91C0008671E000839
:101A10006D1E00085B1F0008811F0008871F00085B
:101A200005200008832000088D2100085D2500089E
:101A30005D2500086922000813240008912400088D
:101A40004D4A4E4B14461D460FCD0FC495E803007A
:101A500020600434218002340B0C23704648FEF7CA
:101A6000F9FB03469AB24FF0FF33434944480AF06A
:101A7000EAFE2821434805F091FE424824F0D0FCBC
:101A80000346414A13603C4A404B14461D460FCD65
:101A90000FC495E8070003C422800234130C23709E
:101AA0003548FEF7D7FB03469AB24FF0FF33324971
:101AB00033480AF0C8FE2821324805F06FFE31484D
:101AC00024F0AEFC0346324A13602B4A314B1446D5
:101AD0001D460FCD0FC495E803002060043421801B
:101AE00002340B0C23702448FEF7B4FB03469AB271
:101AF0004FF0FF33204922480AF0A5FE2821214853
:101B000005F04CFE1F4824F08BFC0346224A13606C
:101B10001D4B1B681E4A11681F4A1268184604F0C4
:101B200061FB00F01FBD00BF30000020C84A00204C
:101B3000C4890208708E020870030020848E020897
:101B4000988E0208B48E0208C88E0208E08E020841
:101B5000F08A0208048F0208088F0208108F02081A
:101B6000BC8F020850030020E08F020854030020BD
:101B7000F48F0208A4030020D0030020B8920208CA
:101B8000E84E0020A8030020FC030020D0920208A9
:101B9000F8030020EC920208F4030020B54AB64B8B
:101BA00014461D460FCD0FC42B681A4622800234FE
:101BB0001B0C2370AF48FEF74DFB03469AB24FF063
:101BC000FF33AC49AD480AF03EFE2821AC4805F091
:101BD000E5FDAB4824F024FC3864396CA94805F0D5
:101BE00009FDA94B18683B6C99B23C231E22FFF7F4
:101BF0000FF90346002B05D0396CA44805F0FAFC18
:101C000000F0B0BCA24805F0F5FC00F0ABBC994A6E
:101C1000A04B14461D460FCD0FC495E8030020606D
:101C2000043421809348FEF715FB03469AB24FF027
:101C3000FF33904991480AF006FE2821904805F0AC
:101C4000ADFD8F4824F0ECFBF8648A4A924B1446B1
:101C50001D460FCD0FC495E8070003C4228002344F
:101C6000130C23708348FEF7F5FA03469AB24FF03F
:101C7000FF33804981480AF0E6FD2821804805F0BD
:101C80008DFD7F4824F0CCFBB8647A4A834B144620
:101C90001D460FCD0FC495E8030020600434218059
:101CA00002340B0C23707348FEF7D4FA03469AB241
:101CB0004FF0FF336F4971480AF0C5FD2821704885
:101CC00005F06CFD6E4824F0ABFB78646E4B186831
:101CD000FB6C99B27B6CBA6CFFF784F90346002B5E
:101CE00005D0F96C6E4805F085FC00F03BBC6D48F2
:101CF00005F080FC00F036BC6B4805F07BFC04F07E
:101D000071FE6A4805F076FC694B186805234FF4AC
:101D1000AA72022102F0CAFC4FF4FA5011F076F9CF
:101D2000644805F067FC0023C7F8A03092E0D7F8BC
:101D3000A03001331946604805F05CFC5A4805F0B4
:101D400059FC04F04FFE4FF47A7011F05FF95B4AD2
:101D5000D7F8A03052F82330012B63D1D7F8A03048
:101D6000092B0DDCD7F8A03001331946544805F093
:101D700041FC0A2200214FF4167004F033FA10E0FF
:101D8000D7F8A030013319464E4805F033FC322213
:101D9000002143F6982004F025FA4FF4FA7011F070
:101DA00035F9494AD7F8A0309B001344D3ED007AA7
:101DB000B7EEE77A53EC172B444805F01BFC324B87
:101DC0001868414AD7F8A0309B001344D3ED007A3D
:101DD000FCEEE77A17EE903A99B23C231E22FFF709
:101DE00017F80346002B03D0394805F003FC02E046
:101DF000384805F0FFFB4FF4FA7011F007F90122A3
:101E00000121354808F00AF94FF47A7011F0FEF814
:101E100000220121304808F001F94FF47A7011F0E6
:101E2000F5F806E0D7F8A030013319462B4805F045
:101E3000E1FBD7F8A030122B07DC1D4B18682823D4
:101E40006FF01102022103F01DFAD7F8A030013320
:101E5000C7F8A030D7F8A030132B7FF768AF204821
:101E600005F0C8FB7EE304F0BDFD7BE31D4B0022C3
:101E70001A606DE0D003002004930208E84E0020B1
:101E8000A803002018930208340000204C93020895
:101E900070930208AC930208D0920208EC920208F8
:101EA000C4930208FC9302083C940208549402086C
:101EB0003000002068940208CC94020850500308B7
:101EC000E0940208F4940208A05003080895020860
:101ED0002095020830950208001002404095020843
:101EE0005895020864030020944805F083FB3221D2
:101EF000934805F0CFFB924824F092FA0346914AAA
:101F00001360904B1B68022B0ED0022B1CDC002BA5
:101F100013D0012B18D1012210218B4808F07EF834
:101F20008A4805F067FB13E000221021864808F07C
:101F300075F8874805F05EFB0AE0864805F05AFB15
:101F4000854B01221A6003E0844805F053FB00BF73
:101F5000814B1B68002BC7D004E3814805F04AFB86
:101F600005E0804805F046FB322011F04FF84FF4B1
:101F700000717D4808F03AF80346002BF1D0F1E2F9
:101F800004F086FCEEE2794B00221A6035E06B48E3
:101F900005F030FB32216A4805F07CFB684824F0EC
:101FA0003FFA0346674A1360664B1B68022B0FD04B
:101FB000022B1EDC002B15D0012B1AD101224FF46D
:101FC0000071614808F02AF8604805F013FB14E03E
:101FD00000224FF400715C4808F020F85C4805F0DE
:101FE00009FB0AE05B4805F005FB614B01221A6022
:101FF00003E05A4805F0FEFA00BF5C4B1B68002B5B
:10200000C5D0AFE25A4B00221A6035E04B4805F0CC
:10201000F1FA32214A4805F03DFB494824F000FA24
:102020000346484A1360474B1B68022B0FD0022B14
:102030001EDC002B15D0012B1AD101224FF40071A8
:10204000414807F0EBFF414805F0D4FA14E00022C4
:102050004FF400713C4807F0E1FF3D4805F0CAFA33
:102060000AE03C4805F0C6FA414B01221A6003E041
:102070003A4805F0BFFA00BF3D4B1B68002BC5D0A6
:1020800070E23C4A3C4B14461D460FCD0FC495E808
:10209000070003C422703748FEF7DCF803469AB203
:1020A0004FF0FF33334935480AF0CDFB282134483F
:1020B00005F074FB324824F0B3F9B8652D4A314B72
:1020C00014461D460FCD0FC495E80F0007C42370BA
:1020D0002848FEF7BFF803469AB24FF0FF33254970
:1020E00026480AF0B0FB2821254805F057FB244874
:1020F00024F096F978651F4A234B14461D460FCDF0
:102100000FC495E8070003C422701A48FEF7A2F82E
:1021100003469AB24FF0FF33164918480AF093FB72
:102120002821174805F03AFB154824F079F938655D
:102130003A6D796DB86D04F0B7F913E28095020835
:1021400070030020A4030020001402400896020837
:102150001C9602083496020864030020E08F0208EF
:10216000549602089C96020800040240680300206E
:102170006C030020D0030020AC960208E84E00203B
:10218000A8030020C8960208E8960208A54B1B6821
:10219000002B15D140230493A34B03934FF48043AA
:1021A0000293A24B01934FF4005300939F4B4FF4C3
:1021B00000629E499E4804F08BFC9A4B01221A60F3
:1021C0009C4A9D4B14460FCB07C423809948FEF7C9
:1021D00041F803469AB24FF0FF33964997480AF008
:1021E00032FB2821964805F0D9FA954824F018F9D1
:1021F0007866904A934B14461D460FCD0FC42B684A
:1022000023808C48FEF726F803469AB24FF0FF333E
:1022100088498A480AF017FB2821894805F0BEFA48
:10222000874824F0FDF83866824A874B14460FCB66
:1022300007C423807F48FEF70DF803469AB24FF09B
:10224000FF337C497D480AF0FEFA28217C4805F0DE
:10225000A5FA7B4824F0E4F8F865FB6D3A6E796ED8
:10226000734804F03DFD7DE107F1140300221A607C
:102270005A609A60DA601A6102237B610023BB61B5
:102280000023FB6100233B6207F1140319466F48EA
:1022900007F0F4FB052010F0B9FE02216B4807F0AF
:1022A000A5FE034687F89F304021694807F09EFE4F
:1022B000034687F89E3097F89F30012B01D165497E
:1022C00000E0654997F89F30012B01D1634B00E096
:1022D000634B1A46634805F08DF997F89E30012B41
:1022E00001D15C4900E05C4997F89E30012B01D197
:1022F0005A4B00E05A4B1A465B4805F07BF95B48A5
:1023000005F078F905F0AEFFF8660023C7F89830BD
:1023100050E002214D4807F069FE034687F86B3014
:1023200040214B4807F062FE034687F86A3097F871
:102330006B2097F89F309A4219D097F86B3087F846
:102340009F30D7F898300133C7F8983097F86B3042
:10235000012B01D1464C00E0464C05F083FF0246BC
:10236000FB6ED31A1A462146434805F043F997F805
:102370006A2097F89E309A4219D097F86A3087F809
:102380009E30D7F898300133C7F8983097F86A3004
:10239000012B01D1364C00E0364C05F063FF0246BC
:1023A000FB6ED31A1A462146344805F023F905205E
:1023B00010F02CFE05F056FF0246FB6ED31A43F6D2
:1023C00097229342A5D9D7F89830002B03D12C48F7
:1023D00005F010F904E0D7F898102A4805F00AF93A
:1023E00097F89F30012B01D11A4900E01A4997F85C
:1023F0009E30012B01D1174B00E0174B1A462248A3
:1024000005F0F8F8AEE0214805F0F4F8642010F08B
:10241000FDFD02210D4807F0E9FD0346002BF2D037
:10242000A0E000BF000400200008024000100240AD
:1024300004040020D003002004970208E84E002086
:10244000A80300201497020828970208000C0240F5
:102450000004024038970208409702084497020897
:10246000589702086C97020894970208B8970208D8
:10247000EC970208F89702080898020830980208BA
:1024800058980208F098020818990208489902081A
:10249000AF4AB04B14460FCB07C42380AC48FDF7BE
:1024A000D9FE03469AB24FF0FF33A949AA480AF071
:1024B000CAF92821A94805F071F9A84823F0B0FF0E
:1024C000B867A74805F096F8A14AA64B14461D46E2
:1024D0000FCD0FC42B6823809D48FDF7BBFE03463C
:1024E0009AB24FF0FF339A499B480AF0ACF9282181
:1024F0009A4805F053F9994823F092FF7867944A77
:10250000994B14460FCB07C423809148FDF7A2FED8
:1025100003469AB24FF0FF338D498F480AF093F982
:1025200028218E4805F03AF98C4823F079FF386766
:102530003B6F7A6FB96F8D4805F05CF83A6F796F31
:10254000B86F04F01FFC8A4805F054F80AE0894887
:1025500005F050F8884B01221A6003E0874805F027
:1025600049F800BF844B1B68002B3FF42FAA00F0F2
:102570001DBC834B00221A6033E0824805F03AF814
:102580003221814805F086F87F4823F049FF034651
:102590007E4A13607D4B1B68022B0ED0022B1CDC85
:1025A000002B13D0012B18D101220121784807F00C
:1025B00035FD784805F01EF813E00022012174482B
:1025C00007F02CFD744805F015F80AE0694805F09D
:1025D00011F86B4B01221A6003E0684805F00AF815
:1025E00000BF674B1B68002BC7D0DFE30023C7F891
:1025F000943061E1694804F0FDFF3221624805F042
:1026000049F8614823F00CFF0346604A13605F4BB2
:102610001B68132B00F24C8101A252F823F000BF7B
:10262000A328000871260008A1260008D12600086A
:10263000ED2600080927000843270008492700085D
:10264000E9270008FB27000815280008452800088E
:102650004B28000851280008572800085D2800086A
:1026600063280008692800086F28000889280008E6
:102670004B4B1B68002B0FDA4A4804F0BBFF0BF0F2
:10268000F3F90346002B03D1474804F0B3FF13E1ED
:10269000464804F0AFFF0FE1454804F0ABFF0BE103
:1026A0003F4B1B68002B03DA424804F0A3FF03E111
:1026B000414804F09FFF0BF0FBFB0346002B03D1C6
:1026C0003E4804F097FFF7E03D4804F093FFF3E045
:1026D000334B1B68002B03DA364804F08BFFEBE02A
:1026E000384804F087FF0CF0B3F8E5E02C4B1B688A
:1026F000002B03DA2F4804F07DFFDDE0324804F0C0
:1027000079FF0BF03BFED7E0304804F073FF244B19
:102710001B68002B01DB2E4B00E02E4B19462E4888
:1027200004F068FF0BF044FF03461A462B4B53F8A6
:10273000223019462A4804F05DFF2A4804F05AFF67
:10274000BAE00BF07FFAB7E00BF094FDB4E000BF05
:10275000D003002004970208E84E0020A8030020C0
:102760005499020814970208289702087C990208D5
:10277000AC9902083496020854030020E08F020846
:1027800058030020C099020870030020A403002011
:10279000001002404C9A0208649A02087C9A0208CF
:1027A00044000020349D0208509D0208649D0208E8
:1027B000809D02089C9D0208B89D0208D09D0208D9
:1027C000EC9D02081C9E0208389E0208609E0208CA
:1027D000809E02088C9E02089C9E02081000002029
:1027E000B09E0208C49E0208A24804F003FF0CF049
:1027F0000DF8A14804F0FEFE5EE00CF05DF8034623
:10280000002B03D09D4804F0F5FE55E09C4804F0F1
:10281000F1FE51E000233B619A4B186807F1100369
:1028200040F21D52042102F087F80346002B05D028
:102830003B691946944804F0DDFE3DE0934804F0FE
:10284000D9FE39E00CF09EF836E00CF029F933E0BF
:102850000CF088F930E00CF055FA2DE00CF020F97E
:102860002AE00CF01BFE27E00EF096F924E00BF0B6
:102870002FFD0346002B03D0854804F0BBFE1BE070
:10288000844804F0B7FE17E00FF078FB0346002BF6
:1028900003D0814804F0AEFE0EE0804804F0AAFEAA
:1028A0000AE00123C7F894307D4804F0A3FE03E05A
:1028B0007C4804F09FFE00BFD7F89430002B3FF413
:1028C00099AE73E2784B00221A6029E0774804F051
:1028D00091FE3221764804F0DDFE754823F0A0FD1C
:1028E0000346744A1360734B1B68022B09D0022BFA
:1028F00012DC002B09D0012B0ED16F4804F07AFEB8
:102900000EE06E4804F076FE0AE06D4804F072FEB8
:10291000654B01221A6003E06A4804F06BFE00BFB9
:10292000614B1B68002BD1D040E2674B1B681846F7
:1029300001F0BCF90346002B03D0644804F05AFEB2
:1029400034E2634804F056FE30E2624804F052FE7E
:102950000BF0AEFA2AE2604804F04CFE494B1B68CB
:10296000184602F00FFD21E25C4B00221A6033E0B2
:102970005B4804F03FFE32214D4804F08BFE4C488A
:1029800023F04EFD03464B4A13604A4B1B68022B53
:102990000ED0022B1CDC002B13D0012B18D10122EE
:1029A0000821504807F03AFB4F4804F023FE13E09B
:1029B000002208214B4807F031FB4C4804F01AFE76
:1029C0000AE03F4804F016FE444B01221A6003E07F
:1029D0003C4804F00FFE00BF404B1B68002BC7D0E3
:1029E000E4E10DF085FCE1E10EF0D2FCDEE14048CF
:1029F00004F000FE3F4804F0FDFD32212C4804F0B5
:102A000049FE3D492A48FDF71BFC0346002B06D032
:102A10003A492748FDF714FC0346002B04D13848F7
:102A200004F0E8FD00BFC1E1214B1B78002B19D059
:102A30001F48FDF70FFC03469AB24FF0FF331C49C5
:102A4000304809F000FF40F60D23BB8107F10C016F
:102A50004FF0FF3302222B4809F0F5FE14492A48B3
:102A600004F0C8FD294804F0C5FD05F0FBFBC7F8DC
:102A7000900063E0E09E0208109F02083C9F02085D
:102A80004C9F020830000020689F0208909F0208B7
:102A9000AC9F0208CC9F0208E89F020808A0020829
:102AA00028A0020844A002085C03002058A00208E5
:102AB00070030020A4030020E0A00208F8A0020890
:102AC00034960208E08F02083400002010A10208AA
:102AD00024A102083CA1020860A1020860030020B2
:102AE00080A102080010024044A2020858A2020875
:102AF0006CA2020804A3020810A3020818A302088B
:102B000020A30208504D002040A3020854A302084D
:102B100007F10F0164230122A54809F01DFF0346B8
:102B2000002B0BD107F10F014FF0FF330122A14819
:102B300009F089FE05F096FBC7F8900005F092FBBE
:102B40000246D7F89030D31A40F6B7329342DFD915
:102B5000994804F04FFD4DE70023C7F88C30DEE0C4
:102B6000964804F047FD3221954804F093FD002378
:102B7000C7F888300023A7F886300023C7F88030D4
:102B80008F4823F04DFC03460B2B00F2948001A2EA
:102B900052F823F0A92C0008C52B0008D92B0008F7
:102BA000ED2B0008032C0008192C00082D2C000820
:102BB000412C0008572C00086B2C00087F2C0008C3
:102BC000952C00087F4BC7F888304023A7F8863043
:102BD0007D4BC7F8803072E07C4BC7F888302023EB
:102BE000A7F886307A4BC7F8803068E0794BC7F891
:102BF00088304FF48043A7F88630774BC7F8803091
:102C00005DE0744BC7F888304FF40043A7F8863076
:102C1000724BC7F8803052E0714BC7F888302023E0
:102C2000A7F886306F4BC7F8803048E0694BC7F88B
:102C300088301023A7F886306B4BC7F880303EE011
:102C4000644BC7F888304FF40073A7F88630674BA1
:102C5000C7F8803033E05B4BC7F888301023A7F803
:102C60008630634BC7F8803029E0564BC7F8883070
:102C70002023A7F886305F4BC7F880301FE0514B08
:102C8000C7F888304FF40043A7F886305A4BC7F88E
:102C9000803014E0594BC7F888300823A7F88630F5
:102CA000574BC7F880300AE0564804F0A3FC0123D4
:102CB000C7F88C3003E0544804F09CFC00BFD7F800
:102CC0008030002B2AD0D7F88010504804F092FCB6
:102CD00032213B4804F0DEFC394823F0A1FB0346D7
:102CE000012B0DD1B7F8863001221946D7F888009C
:102CF00007F094F9D7F88010454804F07BFC0EE00B
:102D0000B7F8863000221946D7F8880007F086F910
:102D1000D7F880103F4804F06DFC00E000BFD7F802
:102D20008C30002B3FF41CAF40E00023FB6725E014
:102D3000394804F05FFC3221214804F0ABFC204804
:102D400023F06EFB0346002B0ED0012B12D10EF0A8
:102D5000EDFF0346002B03D0304804F04BFC0DE0A0
:102D60002F4804F047FC09E0264804F043FC012307
:102D7000FB6703E0244804F03DFC00BFFB6F002B21
:102D8000D6D013E000F020F910E000F017FC0DE0C1
:102D90000A2000F07BFA09E000F072FB06E000F088
:102DA000F1FA03E000F0D0F900E000BFFEF737BA17
:102DB000504D0020E84E002064A3020868A30208DA
:102DC0007003002000000240C0A40208000402407A
:102DD000CCA4020800140240D8A40208E4A402080B
:102DE00000180240F0A40208FCA402080CA5020886
:102DF00024A5020840A502085CA50208000C0240B8
:102E000078A5020834960208E08F020894A502080B
:102E1000BCA50208C8A50208D4A502084CA6020851
:102E20006CA6020880B582B000AF00BFF91D002378
:102E30000122054809F090FD0346002BF6D000BFA3
:102E400000BF0837BD4680BD704F002080B586B0FA
:102E500000AF7860396005F005FA386100237B61C6
:102E60007B6800221A7022E007F10F01142301226F
:102E7000194809F071FD0346002B17D1FB7B0D2B80
:102E800002D0FB7B0A2B03D17B69002B18D10EE00B
:102E90003B68013B7A699A4209DA7B695A1C7A617C
:102EA0001A467B681344FA7B1A7000E000BF05F0F5
:102EB000D9F902463B69D31AB3F57A7FD4D300E03F
:102EC00000BF7B697A68134400221A707B69184638
:102ED0001837BD4680BD00BF704F002080B586B05A
:102EE00000AFF860B9607A601049F86823F02EFDF1
:102EF000786100233B610CE03B695A1C3A619B00FE
:102F0000BA6813447A691A600849002023F01EFD4C
:102F100078617B69002B03D03A697B689A42EBDBCE
:102F20003B6918461837BD4680BD00BFD0A60208D1
:102F300090B589B002AFF860B9607A603B601E4B13
:102F40007B617B68002B04DA1C4B7B617B685B42F6
:102F50007B60BB6A062B15D1BC687A683B6892FB24
:102F6000F3F27B68396893FBF1F1386800FB01F1FB
:102F70005B1A019300927B69114A2146F86823F09D
:102F8000EBFB14E0BC687A683B6892FBF3F27B6869
:102F9000396893FBF1F1386800FB01F15B1A01938A
:102FA00000927B69074A2146F86823F0D5FB00BFF1
:102FB0001C37BD4690BD00BFD4A60208D8A60208A3
:102FC000DCA60208E8A6020880B5E4B002AF5648C5
:102FD00004F010FB554804F00DFBFFF723FF6423BA
:102FE00004225349534809F02EFC07F1F8038021CD
:102FF0001846FFF72BFF0346002B40F3908007F1A4
:10300000F80107F178037F22184623F08CFC07F5BE
:10301000C473A3F58873002283F87F2007F1580159
:1030200007F1780308221846FFF758FFC7F8840114
:10303000D7F88431042B6CDD07F5C473A3F59873BE
:103040009B6807F154010A22184623F0A5FAC7F835
:10305000800107F5C473A3F59873DB6807F150018D
:103060000A22184623F098FAC7F87C0107F5C473C2
:10307000A3F598731B6907F14C010A22184623F047
:103080008BFAC7F8780107F5C473A3F59A731B6828
:103090001B78002B0FD107F5C473A3F59C731B6835
:1030A0001B78002B07D107F5C473A3F59E731B682B
:1030B0001B78002B06D007F1F80319461E4804F0D0
:1030C00099FA2CE007F13400062300931B4BD7F844
:1030D00080211821FFF72CFF07F11C000623009325
:1030E000164BD7F87C211821FFF722FF381D032348
:1030F00000934FF47A73D7F878211821FFF718FF5F
:103100003B1D07F11C0207F134010D4804F072FA6F
:1031100005E007F1F80319460A4804F06BFAFA20B3
:103120000FF074FF59E700BFF4A6020818A70208C1
:1031300030A70208704F002038A7020840420F0055
:1031400050A702085CA7020880B594B000AF4348BE
:1031500004F050FA0023FB64414804F04BFA07F1F5
:1031600008034021184604F095FA3B7A002B6FD0F3
:1031700007F108033B491846FDF762F80346002BA8
:1031800008D007F1080338491846FDF759F80346F7
:10319000002B03D1354804F02DFA5BE0FFF742FE27
:1031A00007F108031846FDF755F803469AB207F1F0
:1031B000080164232E4809F046FB642302222D49AE
:1031C0002B4809F040FB07F1080319462A4804F090
:1031D00011FA05F047F8B86424E0F91D1423012220
:1031E000234809F0B9FB0346002B1AD1FB6C0133CD
:1031F000FB64FB790D2B08D0FB790A2B05D0FB79FA
:103200001F2B08D9FB797E2B05D8FB7919461B4863
:1032100004F0F0F906E0FB791946194804F0EAF9E0
:1032200000E000BF05F01EF80246BB6CD31A42F264
:103230000F729342D1D9FB6C002B04D142F2107172
:10324000104804F0D7F9F96C0F4804F0D3F981E77E
:1032500000BF7FE75037BD4680BD00BF78A702089A
:1032600010A802081CA8020824A802082CA802081A
:10327000704F00204CA8020850A8020860A802085D
:1032800064A802086CA8020884A8020880B588B067
:1032900002AF786004F0E6FFB86000237B61002392
:1032A0003B610023FB7379681B4804F0A3F910E02D
:1032B000C823402219491A4809F0C5FA0346FB738E
:1032C000FB7B002B02D03B6901333B617B690133FF
:1032D0007B6104F0C7FF0246BB68D21A7B684FF4DB
:1032E0007A7101FB03F39A42E2D3FB7B00933B69C3
:1032F000402279690B4804F07DF93B69002B03D02B
:10330000094804F077F902E0084804F073F900BFB7
:103310001837BD4680BD00BF9CA80208F0500308C6
:10332000704F002008A9020850A90208A8A90208A5
:1033300080B588B000AF786007F10C0300221A60F6
:103340005A609A60DA601A614FF40073FB600023E0
:103350003B617B687B610023BB6107F10C0319466D
:10336000074806F08BFB05200FF050FE4FF400716C
:10337000034806F03BFE034618462037BD4680BD95
:103380000018024080B586B000AF3B4600221A60AC
:103390005A609A60DA601A61204804F02BF9022022
:1033A000FFF7C6FF0346FB750120FFF7C1FF034689
:1033B000BB754FF400733B6002237B600023BB604E
:1033C0000323FB6008233B613B461946144806F083
:1033D00055FBFB7D012B01D1124900E01249BB7D59
:1033E000012B01D10F4B00E00F4B1A460F4804F0A0
:1033F00001F9FB7D012B03D10D4804F0FBF809E036
:10340000BB7D012B03D10B4804F0F4F802E00A481D
:1034100004F0F0F800BF1837BD4680BD58AA020876
:1034200000180240ACAA0208B4AA0208B8AA02080E
:10343000ECAA020880AB020864AC020880B582B036
:1034400000AF78600C4809F0C1F90B4A7B68536003
:10345000094809F06DF90346002B05D07968074843
:1034600004F0C8F8002303E014200FF0CFFD01237F
:1034700018460837BD4680BD704F0020FCAC0208DE
:1034800080B586B000AF424804F0B4F800237B61F9
:1034900070E000233B610023FB603E4A7B6952F8E9
:1034A00023301846FFF7CAFF034683F00103DBB25F
:1034B000002B5BD100BFF91D00230122364809F023
:1034C0004BFA0346002BF6D06423042233493248DA
:1034D00009F0B9F92F4A7B6952F823301946304870
:1034E00004F088F804F0BEFEB8602BE0F91D142348
:1034F0000122294809F030FA0346002B21D13B690B
:1035000001333B61FB791F2B0BD9FB797E2B08D84C
:10351000FB680133FB60FB791946224804F06AF826
:1035200010E0FB790D2B02D0FB790A2B03D11E484A
:1035300004F060F806E0FB7919461C4804F05AF8DC
:1035400000E000BF04F08EFE0246BB68D31AB3F55C
:10355000C87FCBD33B69002B02D1154804F04AF851
:10356000FA683969134804F045F800E000BF7B6948
:1035700001337B617B69062B8BD94FF49640FFF7B3
:103580005DFF0D4804F036F800BF1837BD4680BD1A
:103590002CAD020834510308704F002030A70208F8
:1035A000BCAD020860A80208CCAD020864A80208FD
:1035B000D0AD0208DCAD020804AE020880B582B0CE
:1035C00000AF134804F016F8F91D642301221148D6
:1035D00009F0C2F90346002B17D1FB790D2B08D057
:1035E000FB790A2B05D0FB791F2B08D9FB797E2BA1
:1035F00005D8FB791946084803F0FCFF06E0FB7983
:103600001946064803F0F6FFDEE700BFDCE700BF1F
:10361000ACAE0208704F002060A8020864A802083F
:1036200080B485B000AFF860B9607A60FB68074A83
:103630001A60BB68064A1A607B684FF480721A6091
:1036400000BF1437BD465DF8047B7047D0450020AD
:1036500070460020B0B58CB004AF124B3C1D1D4627
:103660000FCD0FC495E8070084E807003B1D00213B
:1036700018460FF06CFC03460B4A13600B4B029389
:103680000B4B01930323009300234FF4805209490D
:10369000094811F0A5F80346084A136000BF203717
:1036A000BD46B0BD3CAF0208CC4500202C450020F3
:1036B0002C05002024AF0208F53700082404002060
:1036C00080B582B000AF3B4600220021334805F0B0
:1036D000B3FB3B6843F400433B603B68002200219E
:1036E0002E4805F0F4FB0FF022FC78603B460022E8
:1036F00000212A4805F0A0FB3B6803F40043002B9F
:103700000BD032200FF082FC0FF011FC02467B68D8
:10371000D31AB3F5FA6FE9D300E000BF3B460022AD
:1037200000211E4805F088FB3B6843F480533B6052
:103730003B6843F400733B603B680022002117485C
:1037400005F0C5FB0FF0F3FB78603B46012200213A
:10375000124805F071FB3B6803F00403002B0CD109
:1037600064200FF053FC0FF0E2FB02467B68D31A93
:1037700041F287329342E8D900E000BF3B6803F092
:103780000403002B03D0064803F034FF02E0054891
:1037900003F030FF00BF0837BD4680BDAC190120E3
:1037A00058AF020868AF020880B582B000AF7860F9
:1037B0000EF0E0FC0C4803F01DFFFFF781FF0B4803
:1037C00017F0F2FD094817F083FD4FF4FA600FF08F
:1037D0001DFC074B1B68012118460FF02BFC4FF412
:1037E000FA600FF013FCFAE798AF0208C0CF002090
:1037F0002404002080B586B000AF78600D4803F047
:10380000F9FE07F10C0341F28832012118460FF04E
:1038100051FCFB68402B03D1074803F0EBFE02E0AC
:10382000064803F0E7FE7868FDF7F2FC64200FF02D
:10383000EDFBFBE7ACAF0208E0AF020848B00208BE
:1038400080B500AF0D4B00221A800D4B00221A806C
:103850000C4B1B6808221A6200220621472004F044
:10386000F5FD472004F00EFE064B1B681A68054B59
:103870001B6842F020021A6000BF80BD28050020AE
:103880002A050020704F002080B400AF064B1B8833
:103890009AB2064B1A80064B1B6808221A6200BFB8
:1038A000BD465DF8047B7047280500202A050020EE
:1038B000704F002080B483B000AF7860114B1B883C
:1038C0009AB2114B1B889BB29A4201D1002312E09D
:1038D0000C4B1B889BB21A460C4B9B5CDAB27B6884
:1038E0001A70084B1B889BB201339BB2DBB29AB2B1
:1038F000044B1A80012318460C37BD465DF8047B43
:10390000704700BF2A050020280500202804002059
:1039100080B483B000AF1A4B7B607B681B68DB69A7
:1039200003F00803082B03D17B681B6808221A6286
:103930007B681B68DB6903F02003202B1AD17B68AE
:103940001B685B6AFB700F4B1B889BB201339BB2F9
:10395000DBB23B800C4B1B889BB23A889A4209D061
:10396000084B1B889BB21946084AFB785354054AFA
:103970003B88138000BF0C37BD465DF8047B704761
:10398000704F0020280500202A0500202804002070
:1039900080B58EB000AF07F1240300221A605A6090
:1039A0009A60DA601A61934B1B6B924A43F01003E2
:1039B0001363904B1B6B03F010033B623B6A8D4B10
:1039C0001B6B8C4A43F0040313638A4B1B6B03F09D
:1039D0000403FB61FB69874B1B6B864A43F02003A2
:1039E0001363844B1B6B03F02003BB61BB69814BEA
:1039F0001B6B804A43F0800313637E4B1B6B03F009
:103A000080037B617B697B4B1B6B7A4A43F001032C
:103A10001363784B1B6B03F001033B613B69754BF0
:103A20001B6B744A43F002031363724B1B6B03F06E
:103A30000203FB60FB686F4B1B6B6E4A43F0400355
:103A400013636C4B1B6B03F04003BB60BB68694B9B
:103A50001B6B684A43F008031363664B1B6B03F050
:103A600008037B607B6800224EF60941624806F03D
:103A7000D5FA00224CF29471604806F0CFFA002289
:103A800048215F4806F0CAFA002248F271015D48F9
:103A900006F0C4FA002244F2A3015B4806F0BEFA25
:103AA00000226221594806F0B9FA002243F20E4181
:103AB000574806F0B3FA4EF609437B620123BB6216
:103AC0000023FB6200233B6307F1240319464A48A5
:103AD00005F0D4FF4FF400537B624FF48813BB62B0
:103AE0000023FB6207F124031946454805F0C6FF91
:103AF0004CF294737B620123BB620023FB620023C0
:103B00003B6307F1240319463C4805F0B7FF4823FF
:103B10007B620123BB620023FB6200233B6307F14E
:103B200024031946364805F0A9FF48F271037B6269
:103B30000123BB620023FB6200233B6307F12403E4
:103B40001946304805F09AFF44F2A3037B62012333
:103B5000BB620023FB6200233B6307F12403194689
:103B6000294805F08BFF81237B620023BB62002381
:103B7000FB6207F124031946244805F07FFF622306
:103B80007B620123BB620023FB6200233B6307F1DE
:103B9000240319461D4805F071FF43F20E437B6272
:103BA0000123BB620023FB6200233B6307F1240374
:103BB0001946174805F062FF40237B620023BB6271
:103BC0000023FB6207F1240319460F4805F056FF56
:103BD0004FF400737B620023BB620223FB6207F198
:103BE00024031946084805F049FF00BF3837BD4691
:103BF00080BD00BF003802400010024000140240A7
:103C00000008024000000240000402400018024088
:103C1000000C024080B485B000AF78600B467B801A
:103C20004FF6FF73FB810023BB8126E0BB897A68D6
:103C300013441B781A46FB895340FB810023FB7217
:103C400015E0FB8903F00103002B0AD0FB895B0818
:103C5000FB81FB8983F4BF4383F07E03DB43FB815D
:103C600002E0FB895B08FB81FB7A0133FB72FB7A84
:103C7000072BE6D9BB890133BB81BA897B889A427D
:103C8000D4D37B887A681344FA89D2B21A70FB893C
:103C90001B0A99B27B8801337A681344CAB21A703E
:103CA00000BF1437BD465DF8047B704780B58AB00D
:103CB00000AF786001233B7403237B740023BB7443
:103CC0000023FB7400233B7501237B7507F1100370
:103CD00006211846FFF79EFF5C4803F08BFC5C480A
:103CE00003F088FC00237B620BE007F110027B6A83
:103CF00013441B781946574803F07CFC7B6A013358
:103D00007B627B6A072BF0DD534803F073FC7B6812
:103D10001B681B6808221A627B681B681B689A690B
:103D20007B681B681B6842F008029A617B681B680D
:103D30001B689A697B681B681B6842F010029A61D5
:103D40007B68186807F110014FF47A73082208F0B5
:103D50007AFD424803F04EFC07F1080307220021D8
:103D6000184622F0D8FD00233B622BE07B681868E0
:103D700007F108023B6AD1184FF47A73012208F068
:103D8000EBFD03467B767B7E002B0AD107F1080210
:103D90003B6A13441B781A46396A314803F02AFCFF
:103DA0000DE0396A2F4803F025FC7B681B681B680F
:103DB000DB6919462C4803F01DFC002341E03B6AF7
:103DC00001333B623B6A062BD0DD284803F012FC2E
:103DD0000023FB610BE007F10802FB6913441B7829
:103DE00019461C4803F006FCFB690133FB61FB69C3
:103DF000062BF0DD184803F0FDFB07F1080307214F
:103E00001846FCF701FD034683F00103DBB2002BEB
:103E100004D0174803F0EEFB002312E0FB7A1BB23C
:103E20001B021AB23B7B1BB213431BB27B837B8BFF
:103E30007A8B19460F4803F0DDFB0F4803F0DAFBDD
:103E4000012318462837BD4680BD00BF80B0020858
:103E5000A8B00208B0B00208B8B00208BCB00208AE
:103E6000D4B00208E4B00208FCB0020814B10208A1
:103E700028B1020838B1020858B1020880B584B0F0
:103E800000AF78607B68DBB2FB7307F10F014FF086
:103E9000FF330122034808F0D6FC7B681846103730
:103EA000BD4680BDE84E002080B586B006AF00F06C
:103EB000BDF804F0B6F900F049F8FFF769FD03F02A
:103EC00065FD03F0D7FF03F031FD03F08FFD03F034
:103ED000A3FA03F0D7FA03F02BFA03F0C3FC03F0C4
:103EE000F1FC03F04FFB114B1B681149184600F021
:103EF0002BF9104B186801230493012303930E4BF5
:103F000002934FF4806301930C4B00934FF4807342
:103F10000B4A0C49FCF792FB0B4803F06BFBFFF7D5
:103F200099FB0EF0FDFF00BFFDE700BF3000002051
:103F3000704F0020340000200018024000100240A2
:103F400000140240604E00207CB1020880B594B09D
:103F500000AF07F11C0334220021184622F0DBFCDD
:103F600007F1080300221A605A609A60DA601A6149
:103F700006F0C2F92B4B1B6C2A4A43F080531364A2
:103F8000284B1B6C03F080537B607B68264B1B68BF
:103F9000254A43F440431360234B1B6803F440431A
:103FA0003B603B680123FB614FF4A0233B6202238B
:103FB0007B634FF48003BB630423FB63D8233B6420
:103FC00002237B640923BB640223FB6407F11C0307
:103FD000184606F0F1F90346002B01D000F076F800
:103FE00006F09AF90346002B01D000F06FF80F237A
:103FF000BB600223FB6000233B614FF4A0537B6155
:104000004FF48053BB6107F108030721184606F0FF
:1040100081FC0346002B01D000F058F800BF503758
:10402000BD4680BD003802400070004080B584B0BD
:1040300000AF3B4600221A605A609A60DA6004F0D2
:104040002FFA01233B7000237B7000237B601F232A
:104050003B7287237B720023BB720023FB72012318
:104060003B7301237B730023BB730023FB733B462D
:10407000184604F04DFA042004F02AFA00BF103765
:10408000BD4680BD80B582B000AF78607B681B689C
:104090000B4A934201D104F0D1F87B681B68094AAE
:1040A000934201D101F06AFD7B681B68064A934286
:1040B00001D101F0CDFD00BF0837BD4680BD00BF76
:1040C00000100040001400400044014080B588B05A
:1040D00000AF72B600BF194B1B6B184A43F00203C6
:1040E0001363164B1B6B03F00203BB60BB6807F145
:1040F0000C0300221A605A609A60DA601A614FF469
:104100008043FB6001233B6100237B610023BB6193
:1041100007F10C0319460A4805F0B0FC4FF4804142
:10412000074805F094FF00237B6002E07B680133C1
:104130007B607B68034A9342F8D9EFE7003802407E
:1041400000040240FF340C0080B582B000AF7860FC
:1041500039607B683A681A607B6800225A607B6825
:1041600000229A607B680022DA607B6800221A6174
:104170007B6800225A617B6800229A617B68012279
:104180001A77FFF75DFB00BF0837BD4680BD80B4DE
:1041900085B000AF78600B467B804FF6FF73FB81E4
:1041A0000023BB8126E0BB897A6813441B781A463A
:1041B000FB895340FB810023FB7215E0FB8903F070
:1041C0000103002B0AD0FB895B08FB81FB8983F488
:1041D000BF4383F07E03DB43FB8102E0FB895B0886
:1041E000FB81FB7A0133FB72FB7A072BE6D9BB8993
:1041F0000133BB81BA897B889A42D4D37B887A68A1
:104200001344FA89D2B21A70FB891B0A99B27B88CF
:1042100001337A681344CAB21A7000BF1437BD461E
:104220005DF8047B704780B582B000AF7860FFF71F
:104230002BFB00BF0837BD4680BD80B584B000AF02
:10424000F860B9607A60FB6818687B689AB24FF0D2
:10425000FF33B96808F0F7FAFB685B685A1CFB6823
:104260005A6000BF1037BD4680BD80B594B000AF26
:10427000786039603B68023B1A4607F10C037968A5
:10428000184622F0B0FC3B689BB2023B9AB207F1A1
:104290000C0311461846FFF77AFF3B68023B7A6829
:1042A00013441B781AB23B68013B79680B441B78B6
:1042B0001BB21B021BB213431BB2A7F84E303B6864
:1042C000023B50333B4413F8443C1AB23B68013B79
:1042D00050333B4413F8443C1BB21B021BB2134344
:1042E0001BB2A7F84C30B7F84E20B7F84C309A42C2
:1042F0000CBF01230023DBB218465037BD4680BDFA
:1043000080B588B000AFF860B9607A600023FB61C7
:1043100003F0A8FFB8617B681A460021B86822F054
:10432000FAFA12E007F117031846FFF7C3FA03463B
:10433000002B0AD0FB695A1CFA611A46BB68134469
:10434000FA7D1A7003F08EFFB861FA697B689A42B1
:1043500007DA03F087FF0246BB69D31AB3F57A7F09
:10436000E0D3FB6918462037BD4680BD80B586B0D6
:1043700000AFF860B9607A603B60F868FFF753FF00
:104380007A68B968F868FFF758FF3A6A3968F868D8
:10439000FFF7B6FF38613A6A3969254803F02AF910
:1043A00000237B610AE07B693A6813441B78194655
:1043B000204803F01FF97B6901337B617A693B690F
:1043C0009A42F0DB1C4803F015F93A693B6A9A42BD
:1043D00009D0FB68DB685A1CFB68DA60FB680022C6
:1043E0001A7700231FE0396A3868FFF73EFF03465B
:1043F00083F00103DBB2002B0CD0FB681B695A1C55
:10440000FB681A61FB6800221A770C4803F0F2F887
:10441000002308E0FB689B685A1CFB689A60FB68F5
:1044200001221A77012318461837BD4680BD00BF08
:10443000B0B10208C8B10208D0B10208D4B1020874
:1044400080B59CB002AFF860084611461A46034694
:10445000FB720B463B811346FB8000237B6687E0A3
:10446000FB689B695A1CFB689A61FB7A87F8543099
:10447000032387F855303B891B0A9BB2DBB287F8D0
:1044800056303B89DBB287F85730FB881B0A9BB25A
:10449000DBB287F85830FB88DBB287F8593007F178
:1044A000540306211846FFF772FEFB885B000533B4
:1044B000FB6507F1140207F15401FB6D00931346ED
:1044C0000822F868FFF752FF034683F00103DBB2CE
:1044D000002B03D02B4803F08DF846E07B7D5BB2C8
:1044E000002B0BDAFB685B695A1CFB685A61BB7DC9
:1044F0001946254803F07EF800233EE03B7DFA7A1A
:104500009A4208D17B7D032B05D1BB7D1A46FB88DF
:104510005B009A4203D01D4803F06CF825E00023AD
:104520003B661CE03B6E5B00033368333B4413F88F
:10453000543C1BB21B021AB23B6E02335B00683361
:104540003B4413F8543C1BB2134319B23B6E5B005F
:104550003A6F13448AB21A803B6E01333B66FB8884
:104560003A6E9A42DEDB012307E07B6E01337B6605
:104570007B6E022B7FF774AF002318466837BD4669
:1045800080BD00BFE0B10208FCB1020818B2020809
:1045900080B588B002AFF8607B600B46FB721346B3
:1045A0003B8100237B6116E03A89F97A07F1120317
:1045B00000930123F868FFF743FF0346002B04D064
:1045C0007A8A7B681A80012309E00A200EF01EFD1A
:1045D0007B6901337B617B69022BE5DD0023184693
:1045E0001837BD4680BD80B588B002AFF8607B60EB
:1045F0000B46FB7213463B8100237B6119E03A892D
:10460000F97A07F1100300930223F868FFF718FF07
:104610000346002B07D07B8A1B043A8A1A437B6827
:104620001A60012309E00A200EF0F0FC7B690133D7
:104630007B617B69022BE2DD002318461837BD46FB
:1046400080BD80B586B000AFF860084611461A46B6
:104650000346FB720B463B811346FB80FB7A3B749F
:1046600006237B743B891B0A9BB2DBB2BB743B897C
:10467000DBB2FB74FB881B0A9BB2DBB23B75FB8889
:10468000DBB27B7507F1100306211846FFF77FFDAB
:1046900007F1100308221946F868FFF7CEFD0A203B
:1046A0000EF0B4FC00BF1837BD4680BD80B58CB09D
:1046B00002AFF860084611461A460346FB720B46E5
:1046C0003B811346FB8000237B6257E0FB689B69BC
:1046D0005A1CFB689A61FB7A3B7706237B773B8900
:1046E0001B0A9BB2DBB2BB773B89DBB2FB77FB8853
:1046F0001B0A9BB2DBB287F82030FB88DBB287F85D
:10470000213007F11C0306211846FFF740FD07F191
:10471000140307F11C01082200920822F868FFF731
:1047200025FE034683F00103DBB2002B03D01748BC
:1047300002F060FF1FE07B7D5BB2002B0ADAFB68B2
:104740005B695A1CFB685A61BB7D1946104802F030
:1047500051FF10E007F1140107F11C03082218466D
:1047600022F0B0F80346002B03D00A4802F042FFC3
:1047700001E0012306E07B6A01337B627B6A022B46
:10478000A4DD002318462837BD4680BD54B2020878
:10479000FCB1020864B2020880B58CB002AFF860C8
:1047A000084611461A460346FB720B463B811346E8
:1047B000FB8000237B626BE0FB689B695A1CFB68F3
:1047C0009A61FB7A3B7706237B773B891B0A9BB276
:1047D000DBB2BB773B89DBB2FB77FB881B0A9BB262
:1047E000DBB287F82030FB88DBB287F8213007F195
:1047F0001C0306211846FFF7CAFC07F1140307F152
:104800001C01082200920822F868FFF7AFFD03465A
:1048100083F00103DBB2002B03D0214802F0EAFE53
:1048200033E07B7D5BB2002B0ADAFB685B695A1CC4
:10483000FB685A61BB7D19461A4802F0DBFE24E092
:1048400007F1140107F11C030822184622F03AF878
:104850000346002B03D0144802F0CCFE15E007F10C
:1048600012033A89F97AF868FFF792FE0346002BA3
:1048700005D07B8AFA889A4201D101230CE00B48CB
:1048800002F0B8FE14200EF0C1FB7B6A01337B629C
:104890007B6A022B90DD002318462837BD4680BD79
:1048A00054B20208FCB1020864B202087CB20208E9
:1048B00080B58AB000AFF8607B600B46FB72134690
:1048C0003B81FB7A3B7510237B753B891B0A9BB2AE
:1048D000DBB2BB753B89DBB2FB7500233B76022361
:1048E0007B760423BB767B68FB847B681B0CBB84D4
:1048F000FB8C1B0A9BB2DBB2FB76FB8CDBB23B77FB
:10490000BB8C1B0A9BB2DBB27B77BB8CDBB2BB7769
:1049100007F114030B211846FFF739FC07F11403C4
:104920000D221946F868FFF788FC0A200EF06EFB8E
:1049300000BF2837BD4680BD80B584B000AFF860A9
:104940007B600B46FB7213463B813A89F97A7B68A0
:10495000F868FFF748FE034618461037BD4680BD8D
:1049600080B588B000AFF8607B600B46FB721346E1
:104970003B810023BB6100237B6103F073FCF86182
:1049800007F118033A89F97AF868FFF7D5FF03466B
:1049900083F00103DBB2002B21D0194802F02AFE7C
:1049A000002328E064200EF031FB07F114033A895C
:1049B000F97AF868FFF7C0FF034683F00103DBB222
:1049C000002B0BD17A69BB699A4204D10D4802F0E1
:1049D00011FE01230FE07B69BB6100E000BF03F023
:1049E00041FC0246FB69D21A7B689A42DAD3064838
:1049F00002F000FE002318462037BD4680BD00BFF0
:104A000090B20208B0B20208C4B2020880B584B005
:104A100000AF87ED010AD7ED017A9FED0C7A27EE02
:104A2000877ADFED0B6AC7EE267AC7ED037A97ED3A
:104A3000030A23F0E5F8F0EE407AFDEEE77A17EE90
:104A4000903A18461037BD4680BD00BF00409C45D7
:104A50000000B44380B483B000AF78607B6800226C
:104A60005A607B6800229A607B680022DA607B686B
:104A700000221A617B6800225A617B6800229A61D9
:104A800000BF0C37BD465DF8047B704780B582B02F
:104A900000AF78600B46FB70F97801234FF4976202
:104AA0007868FFF7CEFD32200EF0B0FAF9780023D7
:104AB00040F261127868FFF7C4FD32200EF0A6FACA
:104AC000F97843F698234FF4B1727868FFF7B9FD8F
:104AD00032200EF09BFAF97843F6982340F26312E5
:104AE0007868FFF7AEFD32200EF090FAF9780523D2
:104AF0004FF4B2727868FFF7A4FD32200EF086FA08
:104B0000F9780A234FF4AB727868FFF79AFD3220E8
:104B10000EF07CFA00BF0837BD4680BD80B58CB072
:104B200000AFF8600B467A60FB720023BB61002384
:104B30007B610023FB6203F095FBF86100237B623D
:104B4000002387F8233007F11803F97A40F21D5249
:104B5000F868FFF7F1FE034683F00103DBB2002B98
:104B600004D0384802F046FD002367E0BB69FB62D1
:104B700058E032200EF04AFA07F11403F97A40F2B5
:104B80001D52F868FFF7D8FE034683F00103DBB23D
:104B9000002B44D197F8233083F00103DBB2002BC4
:104BA00020D07A69BB69D31ABB62BB6A002B02DAD8
:104BB000BB6A5B42BB62BB6A052B05DD012387F83C
:104BC00023307B69FB622CE003F04CFB0246FB695F
:104BD000D31A40F6B832934223D91B4802F00AFD9B
:104BE00000232BE07A69FB6AD31ABB62BB6A002BF5
:104BF00002DABB6A5B42BB62BB6A052B0ADC7B6ADA
:104C000001337B627B6A022B06DD104802F0F2FC66
:104C1000012313E000237B627B69FB6202E000BF9B
:104C200000E000BF03F01EFB0246FB69D21A7B685E
:104C30009A429ED3064802F0DDFC00231846303726
:104C4000BD4680BDD8B2020804B30208B0B2020863
:104C5000C4B2020880B586B000AFF8607A603B60ED
:104C60000B46FB727B6807EE903AF8EEE77AB0EEFF
:104C7000670AFFF7CBFE78617B68002B01D1012327
:104C800050E0F97A052340F26712F868FFF7D9FC83
:104C900064200EF0BBF97B6907EE903AF8EEE77AF4
:104CA000B1EE0E7A67EE877AFDEEE77AF97A17EEC3
:104CB000903A40F26512F868FFF7FAFD64200EF0B2
:104CC000A5F97B69002B07DBF97A012340F2671213
:104CD000F868FFF7B6FC06E0F97A022340F26712A3
:104CE000F868FFF7AEFCFB7A43F698221946F8689D
:104CF000FFF714FF0346FB74FB7C83F00103DBB278
:104D0000002B04D03A68396A084802F073FCF97A3B
:104D1000052340F26712F868FFF793FC64200EF059
:104D200075F9FB7C18461837BD4680BD2CB30208C8
:104D300080B588B002AFF8607A603B600B46FB72CA
:104D40003B68002B03D14B4802F054FC8FE07B6A98
:104D5000002B01DC01237B62FB7A1946F868FFF720
:104D600095FE3B8CF97A4FF4B272F868FFF769FC54
:104D700032200EF04BF9F97A002300933E4B7A680B
:104D8000F868FFF767FF3B68002B00DA01335B1020
:104D90005B421946394802F02DFC3B68002B00DAD3
:104DA00001335B105B421A46F97A00230093344BBF
:104DB000F868FFF74FFFBB6A002B03DDBB6A18469C
:104DC0000EF024F900237B612DE03A6879692D48C3
:104DD00002F010FCF97A7B6900932B4B3A68F86873
:104DE000FFF738FFBB6A002B03DDBB6A18460EF0E5
:104DF0000DF93B685B421A467969244802F0FAFBD8
:104E00003B685A42F97A7B690093214BF868FFF7B7
:104E100021FFBB6A002B03DDBB6A18460EF0F6F8D3
:104E20007B6901337B617A697B6A9A42CDDB3B689F
:104E3000002B00DA01335B101946164802F0DAFB4A
:104E40003B68002B00DA01335B101A46F97A7B6A63
:104E50000093114BF868FFF7FDFEF97A052340F245
:104E60006712F868FFF7EDFB64200EF0CFF81837F3
:104E7000BD4680BD58B3020894B302089CB3020833
:104E8000D0B30208D8B3020800B4020808B402087C
:104E900030B4020838B4020858B4020880B590B0A3
:104EA00002AFF8607A603B600B46FB720023BB6187
:104EB00000237B6100237B6300237B627B68002BE4
:104EC00001D10123A9E07B6807EE903AF8EEE77A7A
:104ED000B0EE670AFFF79AFD07EE900AF8EEE77A60
:104EE000B1EE0E7A67EE877AFDEEE77A17EE903A2A
:104EF0003B623B6ABB62BB6A002B02DABB6A5B4265
:104F0000BB62BB6A143BBB62BB6A002B01DC0123A2
:104F1000BB6207F11803F97A40F21D52F868FFF7F7
:104F20000BFD034683F00103DBB2002B05D039688B
:104F30003C4802F05FFB00236FE0BB697B63F97ABA
:104F40003B6A40F26512F868FFF7B2FC14200EF0DD
:104F50005DF87B68002B01DB012300E00223F97A76
:104F600040F26712F868FFF76CFB03F07BF9F86119
:104F700043E00A200EF04AF807F11403F97A40F2F0
:104F80001D52F868FFF7D8FC034683F00103DBB23B
:104F9000002B31D17A69BB69D31A3B633B6B002B81
:104FA00002DA3B6B5B423B633A6BBB6A9A4201DBC2
:104FB000012332E07A697B6BD31AFB62FB6A002B18
:104FC00002DAFB6A5B42FB627B697B63FB6A052B4F
:104FD0000FDC7B6A01337B627B6A272B0DDDBB6AAA
:104FE00000933B6B3A68396C0F4802F003FB0023D7
:104FF00013E000237B6200E000BF03F033F90246B8
:10500000FB69D31A43F697229342B2D9BB6A3A6836
:10501000396C064802F0EEFA002318463837BD46D0
:1050200080BD00BF64B4020894B40208D4B402087E
:1050300080B588B002AFF8607A603B600B46FB72C7
:105040003B8CFB823B68002B03D16C4802F0D2FA08
:10505000D1E07B6A002B01DC01237B62FB8A48F2F2
:10506000D042934209D9FB8A48F2D042194664489B
:1050700002F0C0FA48F2D043FB82F97A01234FF4E0
:105080009762F868FFF7DDFA32200DF0BFFFF97A7A
:1050900000234FF4FA72F868FFF7D3FA32200DF0CC
:1050A000B5FFF97A002340F26112F868FFF7C9FAF8
:1050B00032200DF0ABFFF97A32234FF4B172F86869
:1050C000FFF7BFFA32200DF0A1FFF97A322340F248
:1050D0006312F868FFF7B5FA32200DF097FFFB8AEC
:1050E000F97A4FF4B272F868FFF7ABFA32200DF09C
:1050F0008DFFF98A7B6A3A68424802F07BFAF97AB6
:1051000000230093404B7A68F868FFF7C7FE3B68BE
:10511000002B00DA01335B105B4219463B4802F07A
:1051200069FA3B68002B00DA01335B105B421A46D8
:10513000F97A00230093364BF868FFF7AFFEBB6A9D
:10514000002B03DDBB6A18460DF060FF00233B61B6
:105150002DE03A6839692F4802F04CFAF97A3B6938
:1051600000932D4B3A68F868FFF798FEBB6A002B56
:1051700003DDBB6A18460DF049FF3B685B421A46E7
:105180003969264802F036FA3B685A42F97A3B6997
:105190000093234BF868FFF781FEBB6A002B03DD09
:1051A000BB6A18460DF032FF3B6901333B613A6937
:1051B0007B6A9A42CDDB3B68002B00DA01335B103F
:1051C0001946184802F016FA3B68002B00DA013342
:1051D0005B101A46F97A7B6A0093134BF868FFF765
:1051E0005DFEF97A052340F26712F868FFF729FAA5
:1051F00064200DF00BFF1837BD4680BD58B3020880
:105200000CB502084CB5020894B302089CB302081E
:10521000D0B30208D8B3020800B4020808B40208E8
:1052200030B4020838B4020858B4020880B582B01D
:1052300000AF78600B46FB70F97805234FF4AA7233
:105240007868FFF7FEF964200DF0E0FEF97841F28E
:10525000883340F21D527868FFF782FB084802F05D
:10526000C9F9F978052340F267127868FFF7E9F980
:1052700064200DF0CBFE00BF0837BD4680BD00BFE7
:1052800088B5020880B588B000AFF8607A601A4629
:105290000B46FB7213463B81F97A052340F26712F5
:1052A000F868FFF7CEF94FF496700DF0AFFEFB7A79
:1052B0001946F868FFF7EAFB7B6807EE903AF8EECC
:1052C000E77AB0EE670AFFF7A1FBB861BB6907EEAA
:1052D000903AB8EEE77BB1EE026B27EE067BFDEE6F
:1052E000C77BF97A17EE903A40F26512F868FFF73B
:1052F000DFFA32200DF08AFE3B89F97A4FF4B27260
:10530000F868FFF79EF932200DF080FEBB69002B94
:1053100002DB0123FB8301E00223FB83FB8BF97A91
:1053200040F26712F868FFF78CF94FF4FA700DF04D
:105330006DFEF97A43F6982340F21D52F868FFF7A4
:105340000FFB0346FB754FF4FA700DF05FFEF97A20
:10535000052340F26712F868FFF773F94FF4FA700B
:105360000DF054FEFB7D83F00103DBB2002B02D075
:10537000034802F03FF900BF2037BD4680BD00BFA3
:1053800094B5020880B584B000AF78601A4802F086
:1053900031F91A4802F02EF9194802F02BF90123CD
:1053A000FB731EE0FB7B1946164802F023F907F158
:1053B0000803F97B40F21D527868FFF7BDFA0346F7
:1053C000002B05D0BB6819460F4802F013F902E024
:1053D0000E4802F00FF932200DF018FEFB7B01336E
:1053E000FB73FB7B0A2BDDD9094802F003F900BFF0
:1053F0001037BD4680BD00BFB0B50208DCB502085D
:10540000F8B5020820B6020834B602084CB6020805
:105410005CB6020880B582B000AF87ED010ADFED0F
:105420000F0A97ED010A22F093FB87ED010AD7EDF1
:10543000017AF5EEC07AF1EE10FA07D5D7ED017AD0
:105440009FED067A77EE877AC7ED017A7B6807EEE3
:10545000903AB0EE670A0837BD4680BD0000B443FD
:1054600080B584B000AF78600023FB607B68002BC0
:1054700023D007F10C0340F21D5202217868FFF798
:105480005BFA034683F00103DBB2002B04D00D4826
:1054900002F0B0F80023FB60FB680B4A13600B4B73
:1054A0004FF000021A600A4B01221A70064B1B686B
:1054B0001946084802F09EF800E000BF1037BD46CC
:1054C00080BD00BF14B70208D04A0020CC4A00209B
:1054D000D44A002044B7020890B589B002AFF86002
:1054E00087ED020A7960FB68002B01D1002376E08A
:1054F0003D4B1B7883F00103DBB2002B02D0F86830
:10550000FFF7AEFF97ED020AFFF784FF87ED020A6F
:10551000364BD3ED007A97ED027A77EE677AC7EDD6
:10552000057AD7ED057A9FED327AF4EEC77AF1EE7F
:1055300010FA08DDD7ED057A9FED2E7A77EEC77A5F
:10554000C7ED057A10E0D7ED057A9FED2B7AF4EEE2
:10555000C77AF1EE10FA07D5D7ED057A9FED257AD7
:1055600077EE877AC7ED057AD7ED057AF0EEE77A20
:105570009FED227AF4EEC77AF1EE10FA0BD597ED93
:10558000020A22F009FB03461A4679681C4802F019
:1055900031F8012323E097ED050A22F0FDFA386186
:1055A000124BD3ED007AB0EE670A22F0F5FA04460A
:1055B00097ED020A22F0F0FA02463B690093134687
:1055C000224679680F4802F015F828233A6902212B
:1055D000F868FFF757FE054ABB68136001231846B9
:1055E0001C37BD4690BD00BFD44A0020CC4A0020E5
:1055F000000034430000B443000034C3CDCC4C3D24
:1056000070B7020898B7020880B584B000AF786020
:105610000B46FB70FB78072B06D9FB7819461A4816
:1056200001F0E8FF00232AE0FB78184AD35C092B3D
:105630000DD9FB78164A52F82310FB78134AD35C35
:105640001A460A23134801F0D5FF002317E0FB7820
:105650000E4AD35C07EE903AF8EE677A9FED0E7A29
:1056600067EE877AC7ED037AFB78094A52F8233050
:10567000194697ED030A7868FFF72EFF0346184690
:105680001037BD4680BD00BFC8B70208505103089F
:1056900058510308E8B702080000104280B584B0F2
:1056A00000AF78600B46FB70FB780A2B06D9FB78BD
:1056B00019461C4801F09EFF00232EE0FB781A4A91
:1056C000D35C0B2B0DD9FB78184A52F82310FB78CA
:1056D000154AD35C1A460C23154801F08BFF0023B2
:1056E0001BE0FB78104AD35C07EE903AF8EE677A3D
:1056F000B3EE0E7A67EE877AB3EE007A77EEC77A6A
:10570000C7ED037AFB78094A52F82330194697ED22
:10571000030A7868FFF7E0FE034618461037BD46D7
:1057200080BD00BF1CB802087851030884510308EB
:105730003CB8020880B400AF044B1B6807EE903AF7
:10574000B0EE670ABD465DF8047B7047CC4A002086
:1057500080B483B000AF0346FB71FB79072B01D9FE
:10576000054B03E0FB79054A52F8233018460C3705
:10577000BD465DF8047B704770B8020858510308B5
:1057800080B483B000AF0346FB71FB790A2B01D9CB
:10579000054B03E0FB79054A52F8233018460C37D5
:1057A000BD465DF8047B704770B802088451030859
:1057B00080B588B000AF7860396000233B6100237A
:1057C000FB607B68002B01D10023AAE007F11003E6
:1057D00040F21D5201217868FFF7AEF8034683F0CE
:1057E0000103DBB2002B04D0504801F003FF00237B
:1057F00097E03B693A68D31ABB613969BB693A687B
:105800004B4801F0F7FEBB69002B04D1494801F079
:10581000F1FE012385E0052340F26712012178683B
:10582000FEF70FFF64200DF0F1FB002340F2611240
:1058300001217868FEF705FF32200DF0E7FB6423B5
:105840004FF4B27201217868FEF7FBFE32200DF0B2
:10585000DDFBBB6940F2651201217868FFF728F88B
:1058600032200DF0D3FBBB69002B01DB012300E0EC
:105870000223FB82FB8A40F2671201217868FEF75F
:10588000E0FE14200DF0C2FB47F2305340F21D52EF
:1058900001217868FFF764F803467B75052340F221
:1058A000671201217868FEF7CCFE14200DF0AEFBE4
:1058B0007B7D83F00103DBB2002B04D01E4801F096
:1058C00099FE00232DE007F10C0340F21D52012147
:1058D0007868FFF731F8034683F00103DBB2002B51
:1058E00004D0164801F086FE00231AE0FA683B68EF
:1058F000D31AFB61FB69002B02DAFB695B42FB6197
:10590000FB69322B07DDF968FB693A680C4801F046
:1059100071FE002305E0FB6819460A4801F06AFEA3
:10592000012318462037BD4680BD00BF74B8020869
:10593000ACB80208DCB8020800B9020824B90208B1
:105940004CB9020888B9020880B582B000AF78600F
:1059500040F678017868FFF72BFF034618460837B2
:10596000BD4680BD80B588B000AF78603960002347
:105970003B610023FB607B68002B01D10023ABE07F
:1059800007F1100340F21D5202217868FEF7D4FFA0
:10599000034683F00103DBB2002B04D0504801F032
:1059A00029FE002398E03B693A68D31ABB61396944
:1059B000BB693A684B4801F01DFEBB69002B04D15E
:1059C000494801F017FE012386E0052340F26712E3
:1059D00002217868FEF735FE4FF496700DF016FB45
:1059E000002340F2611202217868FEF72AFE32207D
:1059F0000DF00CFB28234FF4B27202217868FEF7F9
:105A000020FE32200DF002FBBB6940F2651202213C
:105A10007868FEF74DFF32200DF0F8FABB69002BD5
:105A200001DB012300E00223FB82FB8A40F26712C4
:105A300002217868FEF705FE14200DF0E7FA4EF615
:105A4000602340F21D5202217868FEF789FF034669
:105A50007B75052340F2671202217868FEF7F1FD9D
:105A600014200DF0D3FA7B7D83F00103DBB2002B11
:105A700004D01E4801F0BEFD00232DE007F10C0309
:105A800040F21D5202217868FEF756FF034683F06C
:105A90000103DBB2002B04D0154801F0ABFD00235D
:105AA0001AE0FA683B68D31AFB61FB69002B02DA43
:105AB000FB695B42FB61FB69322B07DDF968FB691F
:105AC0003A680C4801F096FD002305E0FB68194692
:105AD000094801F08FFD012318462037BD4680BDDF
